:0400000017C0FECF58
:10000400FDCFFCCFFBCFFACFF9CFF8CFF7CFF6CFA8
:10001400F5CFF4CFF3CFF2CFF1CFF0CFEFCFEECFD8
:10002400EDCF00000200040026000000F894EE2743
:10003400ECBBF1E0FBBFEBBFE5BF8DE0A2E0BB276B
:10004400ED938A95E9F780E094E0A0E6ED930197BB
:10005400E9F7E8E2F0E085919591009761F0A591C8
:10006400B59105901590BF01F00105900D9201978F
:10007400E1F7FB01F0CFEFE5EDBFE4E0EEBFC0E652
:10008400D1E000C0E6E0E7BBE0E0E8BBE2E0E4BBCF
:10009400E0E0E5BBE1BBE2BBE3BFE2BFEFBDEEBD29
:1000A400EDBDECBDE7BDE6BDEBBDEABDE9BDE8BD18
:1000B400E2BDE5BDE4BDE3BDE9BFE5BFEAB9E0E803
:1000C400E8B9E0E0E0BFE6B9EDB9E6BF7894A99AF3
:1000D40088EC90E00197F1F7A998999909C0F20189
:1000E40031962F0185E08A95F1F7989901C0F5CFF3
:1000F400D201E2E0F0E011D1F8D04FD0A1E2B3E9AF
:100104008CE09DE378D0E0936001F093610160930B
:10011400620170936301A0916001B09161018091CB
:10012400620190916301E0E0F0E064E372E4B1D035
:1001340008F0C19A44245524CACFFFCF552342F472
:10014400503811F4E0FF04C03196691F791F6BF039
:1001540050E8572711F45F933CC05F3F31F0660FBE
:10016400000C57956795752F08955F9300200AF04A
:100174003CC035C050E8192E1522880F991F9527C9
:10018400550F879550E8072E0522660F771F7527B0
:10019400550F67950895689401C0E89430976040BE
:1001A4007040B1F0002426F0772312F4009495D027
:1001B400172E7EE1112032F07A95EE0FFF1F661F95
:1001C400111CF9CFEF2FF62F612D5F93C1DF5F91E3
:1001D4000895EE27FF27662777275F910895EFEFAD
:1001E400FFEF6FE77FEF5F910895EFEFFFEF6FE7AA
:1001F4007FE75F9108955F93BDDF703851F39038C6
:1002040041F301240894791F23F41CF300203AF3EA
:10021400ECCF0F921F932F933F934F9311272227D5
:100224009927689FA0018F9F302D410D591F6B9F07
:10023400300D411D591F8E9F27D0BF9F25D06A9F27
:1002440023D0BE9F1DD0AF9F1BD0AE9F110D291F81
:10025400391F491F591FE32FF42F652F522F4F9138
:100264003F912F911F910F9066232AF0550FEE1F97
:10027400FF1F661F02C073954BF260DF5F91089504
:10028400100D211D391F02C0200D311D491F591F9A
:10029400089599239AF0772342F0971748F029F4A8
:1002A400AE17BF07860720F031F09894889408951C
:1002B4009894089408951894889408957723C2F71D
:1002C400971798F3A9F7EA17FB07680788F399F3D8
:1002D400ECCFF195E195F0400895F0956095709517
:1002E400E195FF4F6F4F7F4F08956F2F660F660B99
:1002F400762F08950024112490E1AA0FBB1F001C3F
:10030400111C0E1A1F0A18F40E0E1F1E01C0A16044
:100314009A9599F7FD01D001089504D0EBDF0EF40E
:10032400D8DF0895E894F7FF02C0D3DF6894B7FFDD
:1003340006C0A095B095119600F8039400FA0895AC
:00000001FF
